:020000040800F2
:1000000030050020D90100087F1700086D12000894
:100010007D170008F90200085519000800000000CB
:10002000000000000000000000000000831700082E
:10003000FB02000800000000811700088517000877
:10004000F3010008F3010008F3010008F3010008C0
:10005000F3010008F3010008F3010008F3010008B0
:10006000F3010008F3010008F3010008F3010008A0
:10007000F3010008F3010008F3010008F301000890
:10008000F3010008F3010008F3010008F301000880
:10009000F3010008F3010008F3010008F301000870
:1000A000F3010008F3010008F3010008F301000860
:1000B000F3010008F3010008F3010008F301000850
:1000C000F3010008F3010008F3010008F301000840
:1000D000F3010008F3010008F3010008F301000830
:1000E000F3010008F3010008F3010008F301000820
:1000F000F3010008F3010008F3010008F301000810
:10010000F3010008F3010008F3010008F3010008FF
:10011000F3010008F3010008F3010008F3010008EF
:10012000F3010008F3010008F3010008F3010008DF
:10013000F30100080000000000000000F3010008C7
:10014000F3010008F3010008F3010008F3010008BF
:10015000F3010008F3010008F3010008F3010008AF
:10016000F3010008F3010008F3010008F30100089F
:10017000F3010008F3010008F3010008000000008B
:1001800000000000F3010008000000000000000073
:10019000F30100080000000000000000F301000867
:1001A000000000000000000000000000F301000853
:1001B000F3010008F3010008F3010008F30100084F
:1001C000F3010008DFF80CD000F084F80048004785
:1001D000951900083005002006488047064800476A
:1001E000FEE7FEE7FEE7FEE7FEE7FEE7FEE7FEE7E7
:1001F000FEE7FEE711180008C50100082DE9F05FD1
:100200000546002092469B46884606468146402485
:100210001BE0284641464746224600F04AF853462E
:100220005A46C01A914110D311461846224600F092
:1002300031F82D1A67EB01084F46224601200021B4
:1002400000F028F817EB00094E41201EA4F101042C
:10025000DFDC484631462A464346BDE8F09FD2B22D
:1002600001E000F8012B491EFBD270470022F6E79F
:1002700010B513460A4604461946FFF7F0FF20461C
:1002800010BD034611F8012B00F8012B002AF9D10B
:1002900018467047202A04DB203A00FA02F10020B9
:1002A00070479140C2F1200320FA03F319439040B4
:1002B0007047202A04DB203A21FA02F0002170471F
:1002C00021FA02F3D040C2F12002914008431946BE
:1002D00070470000064C074D06E0E06840F001035F
:1002E00094E8070098471034AC42F6D3FFF76EFF4E
:1002F000301B0008501B0008FEE7704770B504462D
:1003000000F0E8F80546601C02D004480078044478
:1003100000F0E0F8401BA042FAD370BD08000020B6
:100320002DE9F84F00224FF0010803254FF00F0E82
:100330000B6808FA02F42340A3426ED14E68012EE6
:1003400005D0022E03D0112E01D0122E12D18668B4
:100350004FEA420C05FA0CF7BE43CF6807FA0CF7D8
:10036000374387604668A6430C79C4F30014944071
:1003700034434460C668570005FA07FC8C6826EAD7
:100380000C06BC403443C4604C68022C01D0122CD3
:1003900013D1D40800EB8404A346D4F8209054076A
:1003A0004FEAD46A0EFA0AF629EA06090E6906FA35
:1003B0000AF646EA0906CBF8206006680C7926EAB8
:1003C0000C0604F00304BC40344304604C68E400B1
:1003D00060D5334C266846F480462660246822F0B7
:1003E000030604F4804400942E4C3444A446D4F80C
:1003F00008489607370F0EFA07F6B4432A4EB04264
:1004000001D100261FE0294EB04201D101261AE099
:10041000274EB04202D1022615E03BE0254EB04205
:1004200001D103260FE0244EB04201D104260AE098
:10043000224EB04201D1052605E0214EB04201D145
:10044000062600E00726BE402643CCF808681D4E6D
:1004500034684F689C43FF0300D51C433460194E39
:10046000361D34684F689C43BF0300D51C4334607D
:10047000144E083634684F689C43FF0200D51C4375
:100480003460104E0C3634684F689C43BF0200D570
:100490001C433460521C102AFFF44AAFBDE8F88FA9
:1004A0004438024000300140000002400004024095
:1004B00000080240000C02400010024000140240FC
:1004C00000180240003C01400AB1816170470904F4
:1004D000FBE700000148806870470000080000202A
:1004E00070B5040025D094F83D00002520B984F8AB
:1004F0003C50204600F0D6FA242084F83D002068C5
:10050000016821F0010101602068016841F40041A7
:1005100001602068016821F40041016000F01EFCC8
:100520004D4A6168914201D84C4900E04C498842EB
:1005300001D2012070BD4B492368B0FBF1F15E6828
:1005400026F03F060E435E606368934206D94FF47F
:10055000967359434FF47A73B1FBF3F12368491C46
:100560001E6A26F03F06314319626168914210D835
:100570004900401EB0FBF1F2521CC2F30B02042AE8
:1005800001D2042022E0B0FBF1F0401CC0F30B00CC
:100590001CE0A268F2B301EBC10303EB0116431E9A
:1005A000B3FBF6F35B1C43F480431B0549D092B3C5
:1005B00001EBC10202EB0111401EB0FBF1F0401C47
:1005C000C0F30B0040F4804040F400402168CA6949
:1005D0004CF6FF739A431043C861D4E907100143F6
:1005E0002068026822F0C00211430160D4E90301CF
:1005F00001432068826848F2FF339A4311438160C7
:10060000D4E9050108432168CA6822F0FF021043BB
:10061000C86001E00EE016E02068016841F00101C9
:1006200001602564202084F83D00256384F83E5055
:10063000002070BD01EB4106431EB3FBF6F35B1CCB
:10064000B3E70120C2E701EB4101401EB0FBF1F02E
:10065000401CC0F30B00B7E7A086010080841E0099
:1006600000093D0040420F002DE9F84F1F4690461B
:100670008A460446DDF82890FFF72CFF054694F8DB
:100680003D00202875D1192301226C492046009590
:1006900000F042FF0028F5D194F83C00012868D012
:1006A000012084F83C0020680168C90703D1016873
:1006B00041F0010101602068016821F400610160DE
:1006C000222084F83D00102084F83E000026266495
:1006D000C4F824806785608D20855948E0622B46E8
:1006E0004A465146204600F0D9FD002878D1208D99
:1006F000544F68B1012814D002282068016816D030
:1007000041F480610160206841698069009087E060
:100710002068416981690091016841F400710160BC
:100720007EE02068016821F480610160F0E721F437
:10073000806101602068016841F40061E2E70328FC
:1007400048D801280AD0022814D04B460022394646
:100750002046009500F0E0FED8BB27E02A46494637
:10076000204600F058FFA0BB20680069616A08704D
:100770004DE061E04B46002239462046009500F0EE
:10078000CBFE30BB2068016841F400710160206835
:100790000069616A0870606A401C6062218D491EB0
:1007A0002185618D491E618521682EE020680168E0
:1007B00021F48061016020680069616A0870606AE4
:1007C000401C6062208D401E2085608D401E60852B
:1007D000D0E705E02A464946204600F01CFF10B14C
:1007E0000120BDE8F88F20680069616A0870606ABE
:1007F000401C6062218D491E2185618D491E6185E5
:1008000021684A69D24352070AD409690170606AB3
:10081000401C6062208D401E2085608D401E6085DA
:10082000208D00288BD1202084F83D0084F83E6084
:1008300084F83C600020D4E70220D2E702001000D8
:100840000000FFFF040001002DE9F84F1F4690460D
:100850008A460446DDF82890FFF73CFE054694F8EA
:100860003D0020287FD119230122404920460095D0
:1008700000F052FE002876D194F83C00012872D096
:10088000012084F83C0020680168C90703D1016891
:1008900041F0010101602068016821F400610160FC
:1008A000212084F83D00102084F83E0000262664B4
:1008B000C4F824806785608D20852D48E0622B4632
:1008C0004A465146204600F05FFD90B920684169D4
:1008D0008069009036E02A464946204600F0CEFE68
:1008E00050B1206C042804D12068016841F40071E3
:1008F00001600120BDE8F88F606A21680078086116
:10090000606A401C6062618D491E6185218D491EAF
:1009100089B2218522685369DB435B070BD451B14F
:1009200000781061606A401C6062608D401E6085C6
:10093000208D401E20852A464946204600F0C6FDEF
:100940000028CED1208D0028C5D154F83D0B016878
:1009500041F400710160202004F81E09E6776677F3
:100960000020C7E7FFE70220C4E7000002001000F4
:100970000000FFFF2DE9FF4F83B09A46DDE9119794
:1009800093460446DDF84080FFF7A4FD054694F841
:100990003D0020287FD1192301224049204600959F
:1009A00000F0BAFD002876D194F83C00012872D0FE
:1009B000012084F83C0020680168C90703D1016860
:1009C00041F0010101602068016821F400610160CB
:1009D000212084F83D00402084F83E000026266453
:1009E000C4F82480A4F82A90608D20852C48E06209
:1009F000CDE9007553465A462046049900F012FD91
:100A000070B930E02A463946204600F037FE58B12A
:100A1000206C042804D12068016841F40071016051
:100A2000012007B0BDE8F08F606A21680078086196
:100A3000606A401C6062218D491E89B22185628DE9
:100A4000521E628522685369DB435B070BD469B190
:100A500000781061606A401C6062208D401E208515
:100A6000608D401E6085208D0028CBD12A463946F6
:100A7000204600F02BFD0028CAD154F83D0B016838
:100A800041F400710160202004F81E09E6776677C2
:100A90000020C6E7FFE70220C3E7000002001000C5
:100AA0000000FFFF10B586B0044614216846FFF72A
:100AB000DDFB14492068884221D11348016841F0C8
:100AC000020101600068694600F0020005904FF4E1
:100AD00040700090122001900120029003200390AA
:100AE000042004900948FFF71BFC074810300168F8
:100AF00041F400110160006800F40010059006B098
:100B000010BD000000540040303802400004024094
:100B10000248816802781144816070470800002013
:100B20000B4810B5016841F400710160016841F49F
:100B300080610160016841F480710160032000F070
:100B400061F8002000F006F800F024F8002010BD45
:100B5000003C024070B50D4D04464FF47A71287880
:100B6000B1FBF0F00A490968B1FBF0F000F002FBBC
:100B700048B9102C07D200222146501E00F022F85E
:100B800000206C6070BD012070BD000008000020D6
:100B9000140000200A4808B5016841F48041016052
:100BA000006800F4804000900548001F016841F093
:100BB00080510160006800F08050009008BD000086
:100BC00044380240F0B40E4B1B680C46C3F30223BA
:100BD000C3F10705042D00D90425191D072901D2E9
:100BE000002300E0DB1E012606FA05F1491E214024
:100BF00099409E40761E16403143F0BC00F0ABBEDB
:100C00000CED00E0064900F0070208684FF6FF030C
:100C1000184040EA0220034A104308607047000071
:100C20000CED00E00000FA052DE9F0470E46050046
:100C300065D0DFF81481D8F80000F7B200F00F009B
:100C4000B04207D288F80070D8F8000000F00F001A
:100C5000B04254D128683D4C810712D5400703D5D6
:100C6000206840F4E05020602878000703D5206811
:100C700040F4604020602068A96820F0F00008433C
:100C800020602878C0072DD03049686808390128CD
:100C900012D0022813D0032811D00968890700292F
:100CA0002DDA216821F0030101432160FFF712FCD6
:100CB000814641F2883A0EE009688903EFE7096846
:100CC0008901ECE7FFF706FCA0EB0901514502D9C9
:100CD0000320BDE8F0872068696800F00C00B0EBE5
:100CE000810FEFD1D8F80010404601F00F01B1425A
:100CF00007D90770006800F00F00B04201D0012052
:100D0000E7E72878400705D52068E96820F4E05037
:100D1000084320602878000706D52068296920F458
:100D2000604040EAC100206000F038F82168084ABD
:100D3000C1F30311515CC8400649086006480068C9
:100D4000FFF708FF0020C4E7003C024008380240DB
:100D5000181B0008140000200C000020044805495E
:100D600000680968044AC1F38221515CC840704799
:100D70001400002008380240281B000804480549D8
:100D800000680968044AC1F34231515CC8407047A9
:100D90001400002008380240281B0008224810B523
:100DA000006810F00C02214815D04110042A11D01F
:100DB0001D4C241F082A0FD00C2A0CD1226823684E
:100DC00002F03F025B0221D52068C0F38810A0FB2F
:100DD000010120E0084610BD2268236802F03F02AE
:100DE0005B0205D52068C0F38810A0FB010104E078
:100DF0002168C1F38811A1FB00010023FFF7FEF970
:100E00002168C1F30141491C49000AE02168C1F38E
:100E10008811A1FB00010023FFF7F0F92168C1F35D
:100E20000271B0FBF1F010BD083802400024F4005C
:100E30002DE9F84F0546DFF828B30078ABF1040739
:100E4000C007A7F1040451D0DBF800105846C1F3E5
:100E5000810101290FD00168C1F38101022902D16A
:100E60003968490207D40068C0F38100032809D11A
:100E70003868400206D52068800337D568680028A6
:100E800072D033E06868B0F5803F10D0B0F5A02F85
:100E9000206810D020F480302060206820F480206A
:100EA00020606868A8B1FFF715FB06460DE02068D2
:100EB00040F48030F4E740F480202060F7E700BF82
:100EC000FFF708FB801B642878D820688003F7D5DB
:100ED0000CE0FFF7FFFA064605E000BFFFF7FAFA5D
:100EE000801B6428F0D820688003F7D42878DFF8C6
:100EF000749280074FF0000A46D5DBF80010584680
:100F000011F00C0F0FD00168C1F38101022902D149
:100F10003968490207D50068C0F38100032809D168
:100F20003868400206D42068800715D5E868012893
:100F30001AD111E0E868C0B10120C9F80000FFF73C
:100F4000C9FA064605E000BFFFF7C4FA801B022875
:100F5000BAD820688007F7D52068296920F0F80002
:100F600040EAC10020600FE0F7E0C9F800A0FFF7F9
:100F7000B1FA064605E000BFFFF7ACFA801B022875
:100F80001CD820688007F7D42878000727D5DFF819
:100F9000D0817548696908F16C0881B1012101604F
:100FA000FFF798FA064604E0FFF794FA801B022840
:100FB00004D8D8F800008007F6D510E089E0C0F822
:100FC00000A0FFF787FA064605E000BFFFF782FAA8
:100FD000801B02287DD8D8F800008007F6D4287836
:100FE000400769D55E484FF0000838300068C000FF
:100FF0000BD45B483830016841F0805101600068D3
:101000004FF0010800F080500090584E3068C00545
:1010100011D4306840F480703060FFF75BFA0090C4
:1010200006E000BFFFF756FA0099401A022850D890
:101030003068C005F6D54A4EA868683601280FD03A
:101040000528306810D020F001003060306820F0B2
:1010500004003060A868B8B1FFF73CFA00900FE0D8
:10106000306840F00100F4E740F004003060F7E73A
:10107000FFF730FA0099411A41F28830814264D872
:1010800030688007F4D50EE0FFF724FA009007E0FF
:10109000FFF720FA0099411A41F28830814254D872
:1010A00030688007F4D4B8F1000F05D02C483830F0
:1010B000016821F080510160A869A8B3DBF8001035
:1010C000C1F38101022948D00228C9F860A005D0E7
:1010D00000E03AE0FFF7FEF9054639E0FFF7FAF9DC
:1010E000064604E0FFF7F6F9801B02282DD8206899
:1010F0008001F7D4F5E907010843E9681C4A49086B
:1011000002EB0141AA6841EA82110843297C40EAC6
:101110000160297D40EA017038600120C9F8600053
:10112000FFF7D8F9054606E015E000BFFFF7D2F952
:10113000401B022809D820688001F7D50BE000BFCA
:10114000FFF7C8F9401B022802D90320BDE8F88F39
:1011500020688001F4D40020F8E70120F6E70000C1
:101160000838024000004742800E474200700040AD
:101170000000FFFF10B5401EB0F1807F01D30120B9
:1011800010BD4FF0E02460610F21601700F0E3FB19
:101190000020A06107202061002010BD70B5040070
:1011A00004D094F83900002510B106E0012070BD8C
:1011B00084F83850204600F023F8242084F83900C1
:1011C0002068C16821F40051C160204600F02EFB68
:1011D0002068016921F4904101612068416921F092
:1011E0002A0141612068C16841F40051C160E56392
:1011F000202084F8390084F83A00002070BD0000F7
:1012000010B586B0044614216846FFF72FF814493C
:101210002068884221D11348016841F4802101608F
:10122000006800F4802005900E481038016841F0F5
:10123000040101600068694600F0040005904FF465
:101240004060009002200190012002900320039052
:10125000072004900448FFF763F806B010BD0000B3
:10126000004800404038024000080240FEE70168A4
:101270004A69D24352050FD46FF480624A6100215B
:1012800040F8301F202242738173026942F0040249
:101290000261017301207047002070472DE9F84F6B
:1012A0000446C06A1E4693460D4621680A6842F409
:1012B00080620A60082807D0012805D010F5803F19
:1012C00002D0206B112804D12068016841F480719C
:1012D00001604FF001195B46002249462046009606
:1012E00000F01AF94FF4007840B120680068C0059A
:1012F00001D5C4F840800320BDE8F88F2069DFF8ED
:1013000084A0B0F5804F0FD00620216800EAD517E1
:1013100047F0F000086133465A460AF106012046BC
:1013200000F02EF958BB03E0E8B240F001001CE0E9
:101330002168E8B2086133465A465146204600F01B
:101340001FF9E0B92068416981690091016841F4A1
:10135000807101605B46002249462046009600F0FD
:10136000DBF80028C1D147F0F1002168086133465D
:101370005A465146204600F003F90028BCD001200F
:10138000BAE7000002000100F8B50446C06A1E4634
:101390000D461746082807D0012805D010F5803FD4
:1013A00002D0206B122804D12068016841F48071BA
:1013B0000160134600224FF001112046009600F014
:1013C000ABF840B120680068C00502D54FF400704A
:1013D00020640320F8BD2069B0F5804F0ED00620B0
:1013E000216800EAD51040F0F000086133463A4623
:1013F0000B49204600F0C4F878B902E005F0FE0081
:1014000000E0E8B221680861054933463A46891F81
:10141000204600F0B5F80028DCD00120F8BD00001F
:10142000080001002DE9F843044600680D46DDE997
:10143000089701689846164641F4807101604B4652
:1014400000224FF001112046009700F065F848B1E6
:1014500020680068C00502D54FF4007020640320A6
:10146000BDE8F883216805F0FE0008613B464A4666
:101470001549204600F084F888B9206841698069E0
:1014800000903A464946204600F0F8F848B1206CF2
:10149000042804D12068016841F400710160012032
:1014A000DEE7F5B2B8F1010F09D02168300A086112
:1014B0003A464946204600F0E1F80028E7D1206886
:1014C00005610020CCE700000200010070B516465F
:1014D0000D4604460DE02046FFF7C9FE08B1012085
:1014E00070BD681C05D0FEF7F5FF801BA84207D829
:1014F00035B120684069C0434007ECD4002070BD7E
:10150000002044F8300F20216173A073216941F05D
:10151000200121612073E2E72DE9F0471E46904645
:101520000D460446C1F30747DDF8209008E0701C23
:1015300006D0FEF7CFFFA0EB0900B0420FD876B17E
:101540002068012F18D0806925EA00000004000CF3
:1015500014D000214145EAD00020BDE8F0870020EA
:1015600044F8300F20216173A073216941F02001FC
:10157000216120730120F0E74069E5E70121E9E7F7
:101580002DE9F0479A4691460E46044600254FF055
:101590002008C1F3074725E020684069C0434005A3
:1015A00014D42068016841F40071016021686FF46F
:1015B00080604861256384F83D8084F83E50206C4B
:1015C00040F00400206484F83C501FE0B9F1FF3F74
:1015D00008D0FEF77FFFA0EB0A0149450CD8B9F10E
:1015E000000F09D02068012F13D0806926EA00007F
:1015F0000004000C0BD0CFE744F8305F84F80D8076
:10160000A573206940F02000206125730120BDE80A
:10161000F0874069EAE72DE9F041002590460E4643
:101620000446202717E04069C043C0060CD454F894
:10163000301B6FF01000486144F810596777A577A8
:10164000206A2062257717E0FEF744FFA0EB080030
:10165000B04208D83EB120684169C9434906E2D486
:101660000020BDE8F08144F8305F6773A5732069FE
:1016700040F02000206125730120F2E770B5164686
:101680000D4604460DE02046FFF7F1FD08B10120AC
:1016900070BD681C05D0FEF71DFF801BA84207D84F
:1016A00035B120684069C0430006ECD4002070BD0D
:1016B000002044F8300F20216173A073216941F0AC
:1016C000200121612073E2E730B587B0142168461C
:1016D000FEF7CCFD25480024016841F004010160BB
:1016E000016801F004010591016841F08001016089
:1016F000016801F080010591016841F0010101607C
:10170000016801F001010591016841F002010160E9
:101710000068174D00F002000590002220212846A5
:10172000FEF7D2FE4FF4005000901248CDE90104BC
:1017300069461148FEF7F4FD0C2000900220CDE927
:101740000104032003900720049069462846FEF711
:10175000E7FD202000900120CDE9010469462846DC
:101760000394FEF7DDFD07B030BD000030380240C5
:10177000000002400000211000080240FEE7704710
:1017800070477047FFF7C4B930B593B0342168464D
:10179000FEF76CFD14210DA8FEF768FD1A48002520
:1017A000016841F080510160006800F080501290A3
:1017B0001648016821F4404141F48041016000680D
:1017C000022400F440401290012003901020009465
:1017D00006940490CDE907504FF4A87009900420B6
:1017E000CDE90A0468460C94FFF722FB0DA90F20EF
:1017F00081E83100E002CDE9100502210DA8FFF7D4
:1018000013FA13B030BD00004038024000700040B1
:101810000548016841F47001016003494FF0006020
:10182000803908607047000088ED00E02DE9F04144
:10183000044600680169E26821F4405111430161E6
:101840002169A068E269084361691143084321687E
:10185000CA6849F20C639A430243CA60206841692E
:10186000A26921F4407111434161E069192764259F
:101870003226B0F5004F354A354920684FF0000850
:1018800006D0884201D0904236D1FFF777FA35E092
:10189000884201D0904202D1FFF770FA01E0FFF7D1
:1018A0005DFA61684A18A0FB070148EB0803FEF7E0
:1018B000A5FC0146B0FBF5F00201B1FBF5F06FF0BD
:1018C0001803584301EB800006EBC000B0FBF5F0B5
:1018D00000F0F80002EB4002B1FBF5F0584301EBD9
:1018E000800006EBC000B0FBF5F000F007002168B7
:1018F00010448860BDE8F081FFF730FA61688B0F13
:101900008A00A0FB0701FEF779FC0146B0FBF5F069
:101910006FF01802504301EB800006EB0010B0FBA3
:10192000F5F000F0F002B1FBF5F002EB0012B1FBB4
:10193000F5F06FF01803584301EB800006EB001040
:10194000B0FBF5F000F00F00D1E7000000140140FB
:1019500000100140FEE70907090E002804DB00F132
:10196000E02080F80014704700F00F0000F1E02044
:1019700080F8141D704702E008C8121F08C1002A31
:10198000FAD170477047002001E001C1121F002A00
:10199000FBD1704708B5FFF7C3F8FFF7F5FEFFF777
:1019A00093FE1A481849002401601949C0E901143E
:1019B0004FF48041C0E9034144618461C461046221
:1019C000FEF78EFD11481349543001604FF4E131A8
:1019D000C0E901140C21C460C0E904418461C46100
:1019E000FFF7DCFB00F068F80B4C4FF4A840ADF8B3
:1019F00000006946607800F039F80449A078F431B5
:101A000000F00CF8FEE70000005400401800002031
:101A1000A0860100004800400000002073B582B09D
:101A20000D4C64250E460095012302AA21780B482F
:101A3000FEF70AFF607100280DD100952023324681
:101A400021780648FEF710FE6071002803D004A13B
:101A50003046FEF716FC7FBD000000201800002075
:101A60004572726F722052780D0A00001CB50D4C41
:101A70008DF8040008880323000A8DF80500087813
:101A80008DF806006420009001AA21780648FEF730
:101A9000DBFEE070002804D0034804A1F430FEF718
:101AA000F0FB1CBD00000020180000204572726F82
:101AB00072205478210000002DE9FF4112480227CE
:101AC000124C0068039003A8CDE9000764260025A6
:101AD000029601232A4621780D48FEF74BFF20711C
:101AE0000A20FEF70BFC0DF10E00CDE9000702966F
:101AF00001232A4621780648FEF73CFF20710A2080
:101B0000FEF7FCFBBDE8FF81141B0008000000206D
:101B100018000020140472360000000000000000CD
:101B20000102030406070809000000000102030483
:101B3000501B000800000020180000007619000863
:101B4000681B00081800002018050000861900080E
:101B5000160023000000000001000000100000003B
:081B6000000000000024F40065
:04000005080001C529
:00000001FF
